{
  "_format": "hh3-artifact-1",
  "contractName": "MyNFT",
  "sourceName": "contracts/MyNFT.sol",
  "abi": [
    {
      "inputs": [],
      "stateMutability": "nonpayable",
      "type": "constructor"
    },
    {
      "inputs": [
        {
          "internalType": "address",
          "name": "sender",
          "type": "address"
        },
        {
          "internalType": "uint256",
          "name": "tokenId",
          "type": "uint256"
        },
        {
          "internalType": "address",
          "name": "owner",
          "type": "address"
        }
      ],
      "name": "ERC721IncorrectOwner",
      "type": "error"
    },
    {
      "inputs": [
        {
          "internalType": "address",
          "name": "operator",
          "type": "address"
        },
        {
          "internalType": "uint256",
          "name": "tokenId",
          "type": "uint256"
        }
      ],
      "name": "ERC721InsufficientApproval",
      "type": "error"
    },
    {
      "inputs": [
        {
          "internalType": "address",
          "name": "approver",
          "type": "address"
        }
      ],
      "name": "ERC721InvalidApprover",
      "type": "error"
    },
    {
      "inputs": [
        {
          "internalType": "address",
          "name": "operator",
          "type": "address"
        }
      ],
      "name": "ERC721InvalidOperator",
      "type": "error"
    },
    {
      "inputs": [
        {
          "internalType": "address",
          "name": "owner",
          "type": "address"
        }
      ],
      "name": "ERC721InvalidOwner",
      "type": "error"
    },
    {
      "inputs": [
        {
          "internalType": "address",
          "name": "receiver",
          "type": "address"
        }
      ],
      "name": "ERC721InvalidReceiver",
      "type": "error"
    },
    {
      "inputs": [
        {
          "internalType": "address",
          "name": "sender",
          "type": "address"
        }
      ],
      "name": "ERC721InvalidSender",
      "type": "error"
    },
    {
      "inputs": [
        {
          "internalType": "uint256",
          "name": "tokenId",
          "type": "uint256"
        }
      ],
      "name": "ERC721NonexistentToken",
      "type": "error"
    },
    {
      "anonymous": false,
      "inputs": [
        {
          "indexed": true,
          "internalType": "address",
          "name": "owner",
          "type": "address"
        },
        {
          "indexed": true,
          "internalType": "address",
          "name": "approved",
          "type": "address"
        },
        {
          "indexed": true,
          "internalType": "uint256",
          "name": "tokenId",
          "type": "uint256"
        }
      ],
      "name": "Approval",
      "type": "event"
    },
    {
      "anonymous": false,
      "inputs": [
        {
          "indexed": true,
          "internalType": "address",
          "name": "owner",
          "type": "address"
        },
        {
          "indexed": true,
          "internalType": "address",
          "name": "operator",
          "type": "address"
        },
        {
          "indexed": false,
          "internalType": "bool",
          "name": "approved",
          "type": "bool"
        }
      ],
      "name": "ApprovalForAll",
      "type": "event"
    },
    {
      "anonymous": false,
      "inputs": [
        {
          "indexed": false,
          "internalType": "uint256",
          "name": "_fromTokenId",
          "type": "uint256"
        },
        {
          "indexed": false,
          "internalType": "uint256",
          "name": "_toTokenId",
          "type": "uint256"
        }
      ],
      "name": "BatchMetadataUpdate",
      "type": "event"
    },
    {
      "anonymous": false,
      "inputs": [
        {
          "indexed": false,
          "internalType": "uint256",
          "name": "_tokenId",
          "type": "uint256"
        }
      ],
      "name": "MetadataUpdate",
      "type": "event"
    },
    {
      "anonymous": false,
      "inputs": [
        {
          "indexed": true,
          "internalType": "address",
          "name": "from",
          "type": "address"
        },
        {
          "indexed": true,
          "internalType": "address",
          "name": "to",
          "type": "address"
        },
        {
          "indexed": true,
          "internalType": "uint256",
          "name": "tokenId",
          "type": "uint256"
        }
      ],
      "name": "Transfer",
      "type": "event"
    },
    {
      "inputs": [
        {
          "internalType": "address",
          "name": "to",
          "type": "address"
        },
        {
          "internalType": "uint256",
          "name": "tokenId",
          "type": "uint256"
        }
      ],
      "name": "approve",
      "outputs": [],
      "stateMutability": "nonpayable",
      "type": "function"
    },
    {
      "inputs": [
        {
          "internalType": "address",
          "name": "player",
          "type": "address"
        },
        {
          "internalType": "string",
          "name": "tokenURI",
          "type": "string"
        }
      ],
      "name": "awardItem",
      "outputs": [
        {
          "internalType": "uint256",
          "name": "",
          "type": "uint256"
        }
      ],
      "stateMutability": "nonpayable",
      "type": "function"
    },
    {
      "inputs": [
        {
          "internalType": "address",
          "name": "owner",
          "type": "address"
        }
      ],
      "name": "balanceOf",
      "outputs": [
        {
          "internalType": "uint256",
          "name": "",
          "type": "uint256"
        }
      ],
      "stateMutability": "view",
      "type": "function"
    },
    {
      "inputs": [
        {
          "internalType": "uint256",
          "name": "tokenId",
          "type": "uint256"
        }
      ],
      "name": "getApproved",
      "outputs": [
        {
          "internalType": "address",
          "name": "",
          "type": "address"
        }
      ],
      "stateMutability": "view",
      "type": "function"
    },
    {
      "inputs": [
        {
          "internalType": "address",
          "name": "owner",
          "type": "address"
        },
        {
          "internalType": "address",
          "name": "operator",
          "type": "address"
        }
      ],
      "name": "isApprovedForAll",
      "outputs": [
        {
          "internalType": "bool",
          "name": "",
          "type": "bool"
        }
      ],
      "stateMutability": "view",
      "type": "function"
    },
    {
      "inputs": [],
      "name": "name",
      "outputs": [
        {
          "internalType": "string",
          "name": "",
          "type": "string"
        }
      ],
      "stateMutability": "view",
      "type": "function"
    },
    {
      "inputs": [
        {
          "internalType": "uint256",
          "name": "tokenId",
          "type": "uint256"
        }
      ],
      "name": "ownerOf",
      "outputs": [
        {
          "internalType": "address",
          "name": "",
          "type": "address"
        }
      ],
      "stateMutability": "view",
      "type": "function"
    },
    {
      "inputs": [
        {
          "internalType": "address",
          "name": "from",
          "type": "address"
        },
        {
          "internalType": "address",
          "name": "to",
          "type": "address"
        },
        {
          "internalType": "uint256",
          "name": "tokenId",
          "type": "uint256"
        }
      ],
      "name": "safeTransferFrom",
      "outputs": [],
      "stateMutability": "nonpayable",
      "type": "function"
    },
    {
      "inputs": [
        {
          "internalType": "address",
          "name": "from",
          "type": "address"
        },
        {
          "internalType": "address",
          "name": "to",
          "type": "address"
        },
        {
          "internalType": "uint256",
          "name": "tokenId",
          "type": "uint256"
        },
        {
          "internalType": "bytes",
          "name": "data",
          "type": "bytes"
        }
      ],
      "name": "safeTransferFrom",
      "outputs": [],
      "stateMutability": "nonpayable",
      "type": "function"
    },
    {
      "inputs": [
        {
          "internalType": "address",
          "name": "operator",
          "type": "address"
        },
        {
          "internalType": "bool",
          "name": "approved",
          "type": "bool"
        }
      ],
      "name": "setApprovalForAll",
      "outputs": [],
      "stateMutability": "nonpayable",
      "type": "function"
    },
    {
      "inputs": [
        {
          "internalType": "bytes4",
          "name": "interfaceId",
          "type": "bytes4"
        }
      ],
      "name": "supportsInterface",
      "outputs": [
        {
          "internalType": "bool",
          "name": "",
          "type": "bool"
        }
      ],
      "stateMutability": "view",
      "type": "function"
    },
    {
      "inputs": [],
      "name": "symbol",
      "outputs": [
        {
          "internalType": "string",
          "name": "",
          "type": "string"
        }
      ],
      "stateMutability": "view",
      "type": "function"
    },
    {
      "inputs": [
        {
          "internalType": "uint256",
          "name": "tokenId",
          "type": "uint256"
        }
      ],
      "name": "tokenURI",
      "outputs": [
        {
          "internalType": "string",
          "name": "",
          "type": "string"
        }
      ],
      "stateMutability": "view",
      "type": "function"
    },
    {
      "inputs": [
        {
          "internalType": "address",
          "name": "from",
          "type": "address"
        },
        {
          "internalType": "address",
          "name": "to",
          "type": "address"
        },
        {
          "internalType": "uint256",
          "name": "tokenId",
          "type": "uint256"
        }
      ],
      "name": "transferFrom",
      "outputs": [],
      "stateMutability": "nonpayable",
      "type": "function"
    }
  ],
  "bytecode": "0x608060405234801561000f575f5ffd5b506040518060400160405280600881526020016747616d654974656d60c01b8152506040518060400160405280600381526020016249544d60e81b815250815f908161005b9190610108565b5060016100688282610108565b5050506101c2565b634e487b7160e01b5f52604160045260245ffd5b600181811c9082168061009857607f821691505b6020821081036100b657634e487b7160e01b5f52602260045260245ffd5b50919050565b601f82111561010357805f5260205f20601f840160051c810160208510156100e15750805b601f840160051c820191505b81811015610100575f81556001016100ed565b50505b505050565b81516001600160401b0381111561012157610121610070565b6101358161012f8454610084565b846100bc565b6020601f821160018114610167575f83156101505750848201515b5f19600385901b1c1916600184901b178455610100565b5f84815260208120601f198516915b828110156101965787850151825560209485019460019092019101610176565b50848210156101b357868401515f19600387901b60f8161c191681555b50505050600190811b01905550565b611249806101cf5f395ff3fe608060405234801561000f575f5ffd5b50600436106100e5575f3560e01c806370a0823111610088578063b88d4fde11610063578063b88d4fde146101db578063c87b56dd146101ee578063cf37834314610201578063e985e9c514610214575f5ffd5b806370a082311461019f57806395d89b41146101c0578063a22cb465146101c8575f5ffd5b8063095ea7b3116100c3578063095ea7b31461015157806323b872dd1461016657806342842e0e146101795780636352211e1461018c575f5ffd5b806301ffc9a7146100e957806306fdde0314610111578063081812fc14610126575b5f5ffd5b6100fc6100f7366004610d64565b610227565b60405190151581526020015b60405180910390f35b610119610251565b6040516101089190610dad565b610139610134366004610dbf565b6102e0565b6040516001600160a01b039091168152602001610108565b61016461015f366004610df1565b610307565b005b610164610174366004610e19565b610316565b610164610187366004610e19565b6103a4565b61013961019a366004610dbf565b6103c3565b6101b26101ad366004610e53565b6103cd565b604051908152602001610108565b610119610412565b6101646101d6366004610e6c565b610421565b6101646101e9366004610f30565b61042c565b6101196101fc366004610dbf565b610444565b6101b261020f366004610fa7565b61054f565b6100fc610222366004611005565b610583565b5f6001600160e01b03198216632483248360e11b148061024b575061024b826105b0565b92915050565b60605f805461025f90611036565b80601f016020809104026020016040519081016040528092919081815260200182805461028b90611036565b80156102d65780601f106102ad576101008083540402835291602001916102d6565b820191905f5260205f20905b8154815290600101906020018083116102b957829003601f168201915b5050505050905090565b5f6102ea826105ff565b505f828152600460205260409020546001600160a01b031661024b565b610312828233610637565b5050565b6001600160a01b03821661034457604051633250574960e11b81525f60048201526024015b60405180910390fd5b5f610350838333610644565b9050836001600160a01b0316816001600160a01b03161461039e576040516364283d7b60e01b81526001600160a01b038086166004830152602482018490528216604482015260640161033b565b50505050565b6103be83838360405180602001604052805f81525061042c565b505050565b5f61024b826105ff565b5f6001600160a01b0382166103f7576040516322718ad960e21b81525f600482015260240161033b565b506001600160a01b03165f9081526003602052604090205490565b60606001805461025f90611036565b610312338383610736565b610437848484610316565b61039e33858585856107d4565b606061044f826105ff565b505f828152600660205260408120805461046890611036565b80601f016020809104026020016040519081016040528092919081815260200182805461049490611036565b80156104df5780601f106104b6576101008083540402835291602001916104df565b820191905f5260205f20905b8154815290600101906020018083116104c257829003601f168201915b505050505090505f6104fb60408051602081019091525f815290565b905080515f0361050c575092915050565b81511561053e578082604051602001610526929190611085565b60405160208183030381529060405292505050919050565b610547846108fc565b949350505050565b600780545f918291908261056283611099565b919050559050610572848261096c565b61057c81846109cd565b9392505050565b6001600160a01b039182165f90815260056020908152604080832093909416825291909152205460ff1690565b5f6001600160e01b031982166380ac58cd60e01b14806105e057506001600160e01b03198216635b5e139f60e01b145b8061024b57506301ffc9a760e01b6001600160e01b031983161461024b565b5f818152600260205260408120546001600160a01b03168061024b57604051637e27328960e01b81526004810184905260240161033b565b6103be8383836001610a1c565b5f828152600260205260408120546001600160a01b039081169083161561067057610670818486610b20565b6001600160a01b038116156106aa5761068b5f855f5f610a1c565b6001600160a01b0381165f90815260036020526040902080545f190190555b6001600160a01b038516156106d8576001600160a01b0385165f908152600360205260409020805460010190555b5f8481526002602052604080822080546001600160a01b0319166001600160a01b0389811691821790925591518793918516917fddf252ad1be2c89b69c2b068fc378daa952ba7f163c4a11628f55a4df523b3ef91a4949350505050565b6001600160a01b03821661076857604051630b61174360e31b81526001600160a01b038316600482015260240161033b565b6001600160a01b038381165f81815260056020908152604080832094871680845294825291829020805460ff191686151590811790915591519182527f17307eab39ab6107e8899845ad3d59bd9653f200f220920489ca2b5937696c31910160405180910390a3505050565b6001600160a01b0383163b156108f557604051630a85bd0160e11b81526001600160a01b0384169063150b7a02906108169088908890879087906004016110bd565b6020604051808303815f875af1925050508015610850575060408051601f3d908101601f1916820190925261084d918101906110f9565b60015b6108b7573d80801561087d576040519150601f19603f3d011682016040523d82523d5f602084013e610882565b606091505b5080515f036108af57604051633250574960e11b81526001600160a01b038516600482015260240161033b565b805160208201fd5b6001600160e01b03198116630a85bd0160e11b146108f357604051633250574960e11b81526001600160a01b038516600482015260240161033b565b505b5050505050565b6060610907826105ff565b505f61091d60408051602081019091525f815290565b90505f81511161093b5760405180602001604052805f81525061057c565b8061094584610b84565b604051602001610956929190611085565b6040516020818303038152906040529392505050565b6001600160a01b03821661099557604051633250574960e11b81525f600482015260240161033b565b5f6109a183835f610644565b90506001600160a01b038116156103be576040516339e3563760e11b81525f600482015260240161033b565b5f8281526006602052604090206109e48282611158565b506040518281527ff8e1a15aba9398e019f0b49df1a4fde98ee17ae345cb5f6b5e2c27f5033e8ce79060200160405180910390a15050565b8080610a3057506001600160a01b03821615155b15610af1575f610a3f846105ff565b90506001600160a01b03831615801590610a6b5750826001600160a01b0316816001600160a01b031614155b8015610a7e5750610a7c8184610583565b155b15610aa75760405163a9fbf51f60e01b81526001600160a01b038416600482015260240161033b565b8115610aef5783856001600160a01b0316826001600160a01b03167f8c5be1e5ebec7d5bd14f71427d1e84f3dd0314c0f7b2291e5b200ac8c7c3b92560405160405180910390a45b505b50505f90815260046020526040902080546001600160a01b0319166001600160a01b0392909216919091179055565b610b2b838383610c14565b6103be576001600160a01b038316610b5957604051637e27328960e01b81526004810182905260240161033b565b60405163177e802f60e01b81526001600160a01b03831660048201526024810182905260440161033b565b60605f610b9083610c75565b60010190505f8167ffffffffffffffff811115610baf57610baf610ea5565b6040519080825280601f01601f191660200182016040528015610bd9576020820181803683370190505b5090508181016020015b5f19016f181899199a1a9b1b9c1cb0b131b232b360811b600a86061a8153600a8504945084610be357509392505050565b5f6001600160a01b038316158015906105475750826001600160a01b0316846001600160a01b03161480610c4d5750610c4d8484610583565b806105475750505f908152600460205260409020546001600160a01b03908116911614919050565b5f8072184f03e93ff9f4daa797ed6e38ed64bf6a1f0160401b8310610cb35772184f03e93ff9f4daa797ed6e38ed64bf6a1f0160401b830492506040015b6d04ee2d6d415b85acef81000000008310610cdf576d04ee2d6d415b85acef8100000000830492506020015b662386f26fc100008310610cfd57662386f26fc10000830492506010015b6305f5e1008310610d15576305f5e100830492506008015b6127108310610d2957612710830492506004015b60648310610d3b576064830492506002015b600a831061024b5760010192915050565b6001600160e01b031981168114610d61575f5ffd5b50565b5f60208284031215610d74575f5ffd5b813561057c81610d4c565b5f81518084528060208401602086015e5f602082860101526020601f19601f83011685010191505092915050565b602081525f61057c6020830184610d7f565b5f60208284031215610dcf575f5ffd5b5035919050565b80356001600160a01b0381168114610dec575f5ffd5b919050565b5f5f60408385031215610e02575f5ffd5b610e0b83610dd6565b946020939093013593505050565b5f5f5f60608486031215610e2b575f5ffd5b610e3484610dd6565b9250610e4260208501610dd6565b929592945050506040919091013590565b5f60208284031215610e63575f5ffd5b61057c82610dd6565b5f5f60408385031215610e7d575f5ffd5b610e8683610dd6565b915060208301358015158114610e9a575f5ffd5b809150509250929050565b634e487b7160e01b5f52604160045260245ffd5b5f5f67ffffffffffffffff841115610ed357610ed3610ea5565b50604051601f19601f85018116603f0116810181811067ffffffffffffffff82111715610f0257610f02610ea5565b604052838152905080828401851015610f19575f5ffd5b838360208301375f60208583010152509392505050565b5f5f5f5f60808587031215610f43575f5ffd5b610f4c85610dd6565b9350610f5a60208601610dd6565b925060408501359150606085013567ffffffffffffffff811115610f7c575f5ffd5b8501601f81018713610f8c575f5ffd5b610f9b87823560208401610eb9565b91505092959194509250565b5f5f60408385031215610fb8575f5ffd5b610fc183610dd6565b9150602083013567ffffffffffffffff811115610fdc575f5ffd5b8301601f81018513610fec575f5ffd5b610ffb85823560208401610eb9565b9150509250929050565b5f5f60408385031215611016575f5ffd5b61101f83610dd6565b915061102d60208401610dd6565b90509250929050565b600181811c9082168061104a57607f821691505b60208210810361106857634e487b7160e01b5f52602260045260245ffd5b50919050565b5f81518060208401855e5f93019283525090919050565b5f610547611093838661106e565b8461106e565b5f600182016110b657634e487b7160e01b5f52601160045260245ffd5b5060010190565b6001600160a01b03858116825284166020820152604081018390526080606082018190525f906110ef90830184610d7f565b9695505050505050565b5f60208284031215611109575f5ffd5b815161057c81610d4c565b601f8211156103be57805f5260205f20601f840160051c810160208510156111395750805b601f840160051c820191505b818110156108f5575f8155600101611145565b815167ffffffffffffffff81111561117257611172610ea5565b611186816111808454611036565b84611114565b6020601f8211600181146111b8575f83156111a15750848201515b5f19600385901b1c1916600184901b1784556108f5565b5f84815260208120601f198516915b828110156111e757878501518255602094850194600190920191016111c7565b508482101561120457868401515f19600387901b60f8161c191681555b50505050600190811b0190555056fea26469706673582212201b38b867e16bd2a13f10bfefe2c400b559dbc76fb5bc36961c16d6f5548c25be64736f6c634300081c0033",
  "linkReferences": {},
  "deployedLinkReferences": {},
  "immutableReferences": {},
  "inputSourceName": "project/contracts/MyNFT.sol",
  "buildInfoId": "solc-0_8_28-fc0b72c9f0c1a420b69fc4f21ea3c85245e7e312"
}